{
  "_format": "hh-sol-artifact-1",
  "contractName": "Lock",
  "sourceName": "contracts/Lock.sol",
  "abi": [
    {
      "inputs": [],
      "name": "Balance",
      "outputs": [
        {
          "internalType": "uint256",
          "name": "",
          "type": "uint256"
        }
      ],
      "stateMutability": "view",
      "type": "function"
    },
    {
      "inputs": [
        {
          "internalType": "address",
          "name": "_funder",
          "type": "address"
        }
      ],
      "name": "BalanceofEach",
      "outputs": [
        {
          "internalType": "uint256",
          "name": "",
          "type": "uint256"
        }
      ],
      "stateMutability": "view",
      "type": "function"
    },
    {
      "inputs": [
        {
          "internalType": "uint256",
          "name": "",
          "type": "uint256"
        }
      ],
      "name": "Funder",
      "outputs": [
        {
          "internalType": "address payable",
          "name": "",
          "type": "address"
        }
      ],
      "stateMutability": "view",
      "type": "function"
    },
    {
      "inputs": [],
      "name": "fund",
      "outputs": [],
      "stateMutability": "payable",
      "type": "function"
    },
    {
      "inputs": [
        {
          "internalType": "address",
          "name": "",
          "type": "address"
        }
      ],
      "name": "valueOfEachFunder",
      "outputs": [
        {
          "internalType": "uint256",
          "name": "value",
          "type": "uint256"
        }
      ],
      "stateMutability": "view",
      "type": "function"
    },
    {
      "inputs": [],
      "name": "withdraw",
      "outputs": [],
      "stateMutability": "nonpayable",
      "type": "function"
    }
  ],
  "bytecode": "0x608060405234801561001057600080fd5b5061076b806100206000396000f3fe6080604052600436106100555760003560e01c80630ef678871461005a5780633ccfd60b1461008557806347999c9b1461009c57806389ff231a146100d9578063b60d428814610116578063e6321cfd14610120575b600080fd5b34801561006657600080fd5b5061006f61015d565b60405161007c919061045a565b60405180910390f35b34801561009157600080fd5b5061009a610165565b005b3480156100a857600080fd5b506100c360048036038101906100be91906104d8565b6102a4565b6040516100d0919061045a565b60405180910390f35b3480156100e557600080fd5b5061010060048036038101906100fb9190610531565b6102c2565b60405161010d919061057f565b60405180910390f35b61011e610301565b005b34801561012c57600080fd5b50610147600480360381019061014291906104d8565b6103f6565b604051610154919061045a565b60405180910390f35b600047905090565b600260009054906101000a900473ffffffffffffffffffffffffffffffffffffffff1673ffffffffffffffffffffffffffffffffffffffff163373ffffffffffffffffffffffffffffffffffffffff16146101f5576040517f08c379a00000000000000000000000000000000000000000000000000000000081526004016101ec906105f7565b60405180910390fd5b60003373ffffffffffffffffffffffffffffffffffffffff164760405161021b90610648565b60006040518083038185875af1925050503d8060008114610258576040519150601f19603f3d011682016040523d82523d6000602084013e61025d565b606091505b50509050806102a1576040517f08c379a0000000000000000000000000000000000000000000000000000000008152600401610298906106a9565b60405180910390fd5b50565b60006020528060005260406000206000915090508060000154905081565b600181815481106102d257600080fd5b906000526020600020016000915054906101000a900473ffffffffffffffffffffffffffffffffffffffff1681565b670de0b6b3a7640000341161034b576040517f08c379a000000000000000000000000000000000000000000000000000000000815260040161034290610715565b60405180910390fd5b6001339080600181540180825580915050600190039060005260206000200160009091909190916101000a81548173ffffffffffffffffffffffffffffffffffffffff021916908373ffffffffffffffffffffffffffffffffffffffff160217905550346000803373ffffffffffffffffffffffffffffffffffffffff1673ffffffffffffffffffffffffffffffffffffffff16815260200190815260200160002060000181905550565b60008060008373ffffffffffffffffffffffffffffffffffffffff1673ffffffffffffffffffffffffffffffffffffffff168152602001908152602001600020600001549050919050565b6000819050919050565b61045481610441565b82525050565b600060208201905061046f600083018461044b565b92915050565b600080fd5b600073ffffffffffffffffffffffffffffffffffffffff82169050919050565b60006104a58261047a565b9050919050565b6104b58161049a565b81146104c057600080fd5b50565b6000813590506104d2816104ac565b92915050565b6000602082840312156104ee576104ed610475565b5b60006104fc848285016104c3565b91505092915050565b61050e81610441565b811461051957600080fd5b50565b60008135905061052b81610505565b92915050565b60006020828403121561054757610546610475565b5b60006105558482850161051c565b91505092915050565b60006105698261047a565b9050919050565b6105798161055e565b82525050565b60006020820190506105946000830184610570565b92915050565b600082825260208201905092915050565b7f5369676e6572206e6f74204f776e657200000000000000000000000000000000600082015250565b60006105e160108361059a565b91506105ec826105ab565b602082019050919050565b60006020820190508181036000830152610610816105d4565b9050919050565b600081905092915050565b50565b6000610632600083610617565b915061063d82610622565b600082019050919050565b600061065382610625565b9150819050919050565b7f63616c6c4661696c656400000000000000000000000000000000000000000000600082015250565b6000610693600a8361059a565b915061069e8261065d565b602082019050919050565b600060208201905081810360008301526106c281610686565b9050919050565b7f4e6f742046756c6c46696c6c0000000000000000000000000000000000000000600082015250565b60006106ff600c8361059a565b915061070a826106c9565b602082019050919050565b6000602082019050818103600083015261072e816106f2565b905091905056fea26469706673582212208cb367d480eb1a0f9dda938756cd520f0d2e02c18232f90c08eb85f5d5459ecb64736f6c63430008110033",
  "linkReferences": {},
  "deployedLinkReferences": {}
}